:020000040000FA
:100000003029630008000120012001200120012087
:1000100008000320032008000920092009200920E6
:10002000092008008316810083120800012086122F
:100030000800223086001620223086001620283044
:100040008600162008002030860016202630860004
:100050001620080094002030860016201408860020
:100060001620080024308600162020308600162036
:100070000800283086001620203086001620080050
:1000800021308600162028308600162008002130F6
:10009000860016202C3086001620080093002130A0
:1000A00086001620130886001620080020308600DF
:1000B00016202130860016200800203086001620E9
:1000C0002230860016200800860016202030860088
:1000D000162008009000F039033E9100110E8600B2
:1000E000162010080F39303E8600162008003220F6
:1000F00008306A200C306A200A306A2009306A20F1
:1001000009306A200A306A200C306A2008306A20E0
:100110000800860100308316860000301220192066
:100120002B302A20232077202830642008004230FA
:100130006A2069306A206E306A2061306A2072302D
:100140006A2079306A2020306A2032306A202030DC
:100150006A2044306A2065306A2063306A20693042
:100160006A206D306A2061306A206C306A202C3041
:10017000642042306A2079306A2020306A204E3074
:100180006A2065306A206F306A2020306A20413052
:100190006A2079306A2065306A2073306A207430B2
:1001A0006A2061306A2072306A2061306A206E30C5
:1001B0006A200C200C200C20080035306A20733097
:1001C0006A2065306A2063306A2020306A2054300B
:1001D0006A2069306A206D306A2065306A20643098
:1001E0006A2020306A204D306A206F306A206430E7
:1001F0006A2065306A203F306A202C306420473006
:100200006A2072306A2065306A2065306A206E305C
:100210006A203D306A2059306A2065306A20733088
:100220006A202F306A2052306A2065306A2064309C
:100230006A203D306A204E306A2030306A20080043
:1002400086170120851C21298613013084000800AF
:1002500006170120051C2929061302308400080016
:1002600085011F308316850089200617861709200F
:10027000061386132F302A20972009205620DD20D0
:10028000043084000120851C202104181B2A051C31
:1002900028218418F2291530150A95009700980036
:1002A0004229562043306A206F306A206E306A201F
:1002B00076306A2065306A2072306A2074306A2095
:1002C00020306A203130951F30306A203130151FC0
:1002D00030306A203130951E30306A203130151EA2
:1002E00030306A203130951D30306A203130151D94
:1002F00030306A203130951C30306A203130151C86
:1003000030306A202C3064200800562041306A20AA
:100310006E306A2073306A2077306A2065306A2038
:1003200072306A2020306A2069306A2073306A2077
:100330002E306A202E306A202E306A2020306A202B
:10034000960199010120960A990A643097020318D0
:10035000A229990397013030190799006A20961C49
:10036000B82901206430180298009603161CB129A0
:10037000960199010120960A990A0A3098020318F9
:10038000BA2999033030190799006A200A301807F2
:1003900098003030180798006A20980196012C3098
:1003A000642050306A2072306A2065306A207330D1
:1003B0006A2073306A2020306A2072306A206530EB
:1003C0006A2064306A2020306A2074306A206F30DE
:1003D0006A2020306A2065306A206E306A206430DE
:1003E0006A20080051212C30642047306A20723086
:1003F0006A2065306A2065306A206E306A202030BD
:100400006A2066306A206F306A2072306A2020309D
:100410006A2061306A206E306A2073306A2077303B
:100420006A2065306A2072306A200120851C2021F4
:100430000418522A152A51212C30642041306A2098
:100440006E306A2073306A2077306A2065306A2007
:1004500072306A2020306A2069306A206E306A204B
:1004600020306A2035306A200C20092020304E20B0
:10047000012034306A200C20092020304E20012039
:1004800033306A200C20092020304E2001203230E9
:100490006A200C20092020304E20012031306A20B3
:1004A0000C20092085210120051C282184183E29C3
:0204B000532ACD
:00000001FF
